S10EE0008E3FFFBDE55E4FCE20018C7B
S111E00B20292705A7000820F6CEF80C18CE11
S111E01920008CF80D270AE60018E70008180E
S10BE0270820F1BDE02F20FEEA
S110E02FBDEED3A618CEE615BDF08318CEC5
S10EE03C2016BDF0C07F200D6F10BD4A
S10EE047E2C018CEE611BDF08318CE35
S10FE0522022BDF0C0CC0000FD201C7F8B
S111E05E201B7F201ACC0000FD200BCC0000FC
S110E06CFD2009CC0000FD2007CC0000FDC4
S111E0792005CC0000FD2003CC0000FD20019A
S111E087BDE65FCC00013736CC0002BDE7A138
S111E0951838CCE601BDE635CC00023736CC97
S111E0A30003BDE7A11838CCE5F4BDE635183E
S110E0B1CEE5F0BDF083183C183C1830BDDE
S110E0BEF0C0BDE51118381838BDE65F7ECE
S111E0CBE2B5FC200B2711CCE5E93736EC005A
S111E0D9C30004BDF55218382025FC20092789
S111E0E711CCE5E23736EC00C30004BDF5525F
S111E0F51838200FCCE5DD3736EC00C30004EC
S111E103BDF552183818CE200EBDF08318CE8C
S10DE111E5D9BDF0A9BDF33918CE1D
S10EE11BE615BDF0A9BDF4EF26037E5D
S111E126E204EC00C300043736CCE5CE3736F5
S110E134EC00C30011BDF55218381838CCAA
S111E14100003736CC0000BDE7A11838EC0012
S111E14FC30011BDE635BDE666CC0384373649
S110E15DCC00643736CCE5BB3736EC00C38C
S111E16A0011BDF552BDEEFA06CC00013736A9
S111E178CC0000BDE7A11838EC00C30011BDB7
S10FE186E635BDE666F6201A4F3736F683
S111E192201B4F3736FC201C3736CCE5A73750
S111E1A036EC00C30011BDF552BDEEFA08CCFA
S111E1AE00023736CC0000BDE7A11838EC00A3
S111E1BCC30011BDE635BDE66618CE2022BDB7
S111E1CAF083CC0001BDF40A183C183C183058
S111E1D8BDF0C0CCE5983736EC00C30011BD95
S111E1E6F552BDEEFA06CC00033736CC00002D
S111E1F4BDE7A11838EC00C30011BDE635BD2F
S111E202E666BDE2CDE7101F100156CC000108
S10FE210FD2007FC200726037EE2B5FC7D
S111E21C200B26037EE2B5CCE5883736EC00F5
S111E22AC30011BDF5521838CC00003736CCB5
S110E2380000BDE7A11838EC00C30011BDC3
S10DE245E635BDE66618CEE584BD9B
S111E24FF083183C183C1830BDF0C0BDE5113A
S111E25D1838183820521F10024ECC0001FD54
S110E26B2005FC20052743FC2009273ECC9C
S111E278E5743736EC00C30011BDF5521838BA
S111E286CC00003736CC0000BDE7A11838EC00
S111E29400C30011BDE635BDE66618CEE58474
S110E2A2BDF083183C183C1830BDF0C0BD21
S111E2AFE511183818387EE0CD8FC300268F95
S110E2BD353839CC0000BDE2E2BDE619BDE4
S111E2CAE32439BDEED304F61000C403E703C9
S111E2D8E6034F08080808353839BDEED34672
S111E2E61D09FCBDE316E705E605E10927184E
S111E2F418CE1000181D0030E609585858586E
S111E302E702F61000EA02F710008FC30006CF
S111E3108F3538183839F610004F0404040411
S110E31E8400C4034F39BDEED382C640F71E
S111E32B10227F102018CEE615BDF08318CE08
S10DE339200EBDF0C018CEE611BDA1
S111E343F08318CE201EBDF0C00E0808353839
S104E351398E
S104F80C00F7
S110E352BDEED384C640F71023FC100EC3AB
S111E35F4E20FD101818CE200EBDF08318CEEF
S10DE36DE570BDF0A9BDF20018CE62
S10EE377200EBDF0C0F62000CB01F723
S110E3822000F62000C16425487F2000F62D
S111E38F201ACB01F7201AF6201AC13B230BEB
S10FE39D7F201AF6201BCB01F7201BF692
S110E3A9201BC13B230C7F201BFC201CC348
S111E3B60001FD201C18CE201EBDF08318CEE1
S10DE3C4E56CBDF0A9BDF20018CE0F
S10EE3CE201EBDF0C0FC20072608FC48
S10FE3D9200526037EE47418CE200EBD3F
S10DE3E5F08318CEE568BDF0A9BD71
S10EE3EFF20018CE2012BDF0C018CEC2
S10DE3FA2012BDF08318CEE564BDC7
S10DE404F0A9BDF20018CE2016BDE9
S110E40EF0C0FC20072721FC200B260ECCBB
S111E41B0001FD2003CC0000FD20012040CCB8
S111E4290000FD2001CC0000FD20032032FC89
S110E43720052721FC2009260ECC0000FD45
S111E4442003CC0001FD2001201ACC0000FDB5
S111E4522001CC0000FD2003200CCC0000FDB6
S111E4602001CC0000FD2003CC0000FD2005AF
S111E46ECC0000FD200718CE200EBDF0831850
S10FE47CCE2012BDF0A9BDF4EF2C6AFC08
S111E4882003272CCC0002BDE2E2CC0001FDF3
S110E496200BCC0000FD200918CE2022BD73
S10DE4A3F08318CEE56CBDF0A9BDAE
S10FE4ADF20018CE2022BDF0C02052FC6A
S111E4B92001272CCC0001BDE2E2CC0000FDC6
S110E4C7200BCC0001FD200918CE2022BD41
S10DE4D4F08318CEE56CBDF0A9BD7D
S111E4DEF20018CE2022BDF0C02021CC000098
S110E4ECBDE2E22019BDE316C1002706CCF5
S111E4F90000BDE2E2CC0000FD2001CC0000DA
S111E507FD20030808080835383BBDEED38616
S111E515EC00C3000A188FBDF08318CEE56831
S10EE523BDF0A9BDF2FEBDF0EE18CE65
S111E52E200EBDF083BDF200EC00C300021805
S111E53C8FBDF0C0EC00C30002188FBDF08349
S111E54A18CE200EBDF0A9BDF4EF2EEA8FC34B
S10FE55800068F353839C605F7103F392E
S111FFD6FFFFFFFFFFFFFFFFFFFFFFFFFFFF27
S111FFE4FFFFE352FFFFFFFFFFFFFFFFFFFFE2
S111FFF2FFFFFFFFFFFFFFFFFFFFFFFFE00029
S111E5640000005A0000000A00000001000040
S111E5720001416C726561647920636C6F7303
S111E58065642100000000C8416C726561648E
S111E58E79206F70656E656421006F646F6D97
S111E59C657465723D2530376C640074696DDA
S111E5AA653D253032643A253032643A25301E
S111E5B83264006F6E3D2564206D73206F6623
S111E5C6663D2564206D73007368757474657A
S111E5D4723D2573000000003269646C65001E
S111E5E2636C6F736564006F70656E65640032
S111E5F000000BB856657273696F6E20312EF1
S111E5FE3030005448322053687574746572CE
S110E60C204A6967000000000000000000C3
S111E619C60CF72026CC003CBDE7F0F6202608
S111E6274FBDE7F0CC0006BDE7F0BDE65F395D
S111E635BDEED3442013EC06ED02C30001ED4C
S111E643061AEE0218E6004FBDE78B1AEE062B
S111E651186D0026E508080808353818383911
S111E65FCC0001BDE7F039BDEED306BDE78463
S111E66DE7036D03250CE603C1132206C61352
S111E67BE7042022E603C140250CE603C15348
S111E6892206C653E7042010E603C114250A36
S111E697E603C1272204C627E704E603C154A4
S111E6A5250AE603C1672204C667E704E603FC
S111E6B3E705200CCC0020BDE78BE605CB016B
S111E6C1E705E605E10423EEE6034FBDE76E30
S111E6CF8FC300068F353839CC0002BDE7F04A
S111E6DD3937363C3C30EF00E605C403CA046E
S111E6EB4FBDE7F008083538183839BDEED3B6
S111E6F944E607C401E702F62026C4FEEA0246
S111E7074FBDE753080808083538183839BDE7
S111E715EED344E607C40158E702F62026C4FA
S111E723FDEA024FBDE7530808080835381810
S111E7313839BDEED344E607C4015858E70258
S111E73FF62026C4FBEA024FBDE75308080883
S111E74D08353818383937363C3C30EF00E6D2
S111E75B05CA084FBDE7F0E605F720260808BA
S111E769353818383937363C3C30EF00E605B9
S111E777CA804FBDE7F008083538183839F667
S111E785B5F0C47F4F3937363C3C30EF00BD51
S111E793E806E605F7B5F108083538183839F8
S111E7A1BDEED346E60D4FED03271AEC031A26
S111E7AF8300012716EC031A8300022714ECE2
S111E7BD031A830003271220146F052010C6D0
S111E7CB40E705200AC614E7052004C654E7FB
S111E7D905E605EB09E705E6054FBDE76E8F83
S111E7E7C300068F353818383937363C3C30BD
S111E7F5EF00BDE806E605F7B5F00808353874
S111E80318383918CEB5F0181F00800220F521
S104E81139C9
S111E812BDEED3F8CC0000ED2D7EEDE31AEE42
S111E8203E18E600C12527171AEE3E18E60042
S111E82E4F1AEE3A18AD00EC2DC30001ED2D8B
S111E83C7EEDDCCC0000ED32CC0000ED2BCCE8
S111E84A0000ED34EC00C30010ED29C620E7F9
S111E85831EC3EC30001ED3ECC0000ED361A5B
S111E866EE3E18E6004FED081A830020274C02
S111E874EC081A8300232722EC081A830020E4
S111E8822D54EC081A83002B2726EC081A8369
S111E890002D2714EC081A8300302732203A9A
S111E89EEC348A00CA01ED342035EC348A00D3
S111E8ACCA04ED34202BEC348A00CA08ED3483
S111E8BAC62BE731201DEC348A00CA08ED3469
S111E8C8C620E731200FEC348A00CA10ED346C
S111E8D62005CC0001ED36EC362702200AECBA
S111E8E43EC30001ED3E7EE8651AEE3E18E6E6
S111E8F2004FBDF7321A8300002720EC3EBD14
S111E900F76CED322007EC3EC30001ED3E1A29
S111E90EEE3E18E6004FBDF7321A83000026D5
S111E91CE91AEE3E18E600C12E2625EC3EC395
S111E92A0001ED3EBDF76CED2B2007EC3EC363
S111E9380001ED3E1AEE3E18E6004FBDF73228
S111E9461A83000026E91AEE3E18E600C16CA2
S111E954260FEC3EC30001ED3EEC348A00CAEF
S111E96202ED341AEE3E18E6004FED081A835B
S111E970006326037EEC6DEC081A8300642617
S110E97E037EE9EFEC081A83006626037E91
S111E98BEDD4EC081A8300662E0DEC081A83F6
S110E999005826037EEAB02036EC081A83ED
S111E9A6006F26037EEAB0EC081A83006F2D82
S111E9B423EC081A83007326037EEC8EEC0815
S110E9C21A83007526037EEAB0EC081A8360
S111E9CF007826037EEAB020001AEE3E18E619
S111E9DD004F1AEE3A18AD00EC2DC30001ED08
S111E9EB2D7EEDDCEC348400C4021A8300009F
S110E9F926037EEA74EC40C30004ED40C325
S111EA06FFFC188FBDF083EC00C3000A188FCC
S111EA14BDF0C0EC00C3000A188FBDF08318DB
S111EA22CEEE37BDF0A9BDF4EF2C23EC348A00
S111EA3000CA08ED34C62DE731EC00C3000A1D
S111EA3E188FBDF083BDF47AEC00C3000A18F3
S111EA4C8FBDF0C0CC000A3736EC00C3000AC0
S111EA5A188FBDF083183C183C1830BDF0C076
S111EA68EC29BDEFAABDEEFA067EEC4BEC40A5
S111EA76C30002ED40C3FFFE188F18EC00ED44
S111EA840E2C14EC348A00CA08ED34C62DE7BB
S111EA9231EC0E40508200ED0ECC000A3736F7
S111EAA0EC0E3736EC29BDEF1C183818387E02
S111EAAEEC4BEC348400C4021A830000271BD6
S110EABCEC40C30004ED40C3FFFC188FBD07
S111EAC9F083EC00C3000A188FBDF0C02011CA
S111EAD7EC40C30002ED40C3FFFE188F18ECA4
S111EAE500ED0E1AEE3E18E600C1752645EC53
S111EAF3348400C4021A8300002724CC000AD5
S111EB013736EC00C3000A188FBDF083183CB1
S110EB0F183C1830BDF0C0EC29BDEFAABDC4
S111EB1CEEFA067EEC4BCC000A3736EC0E37D0
S111EB2A36EC29BDEF1C183818387EEC4B1A57
S111EB38EE3E18E600C16F27037EEBA6EC3418
S111EB468400C4011A8300002711EC29ED0697
S111EB54C30001ED291AEE06C63018E700ECE6
S111EB62348400C4021A8300002724CC000867
S111EB703736EC00C3000A188FBDF083183C42
S110EB7E183C1830BDF0C0EC29BDEFAABD55
S111EB8BEEFA067EEC4BCC00083736EC0E3763
S111EB9936EC29BDEF1C183818387EEC4BEC16
S111EBA7348400C4011A8300002726EC29EDF3
S111EBB506C30001ED291AEE06C63018E7006B
S111EBC3EC29ED04C30001ED291AEE3E18E61C
S111EBD1001AEE0418E700EC348400C4021AA3
S110EBDF8300002723CC00103736EC00C360
S111EBEC000A188FBDF083183C183C1830BD89
S111EBFAF0C0EC29BDEFAABDEEFA062012CC45
S111EC0800103736EC0E3736EC29BDEF1C1821
S111EC163818381AEE3E18E600C1582628ECCD
S111EC2400C30010ED2F20171AEE2F18E60083
S110EC324FBDF5C01AEE2F18E700EC2FC3FC
S111EC3F0001ED2F1AEE2F186D0026E1EC00F7
S111EC4DC30010ED2FEC2B2750EC00C3001079
S111EC5BBDF5E5ED0EEC2B1AA30E2C3FEC0ECE
S111EC69ED2B2039EC40C30002ED40C3FFFE4A
S111EC77188F18EC00ED0E1AEE3A18AD00ECF2
S111EC852DC30001ED2D7EEDDCEC40C300023A
S111EC93ED40C3FFFE188F18EC00ED2F260590
S111ECA1CCEE25ED2FEC32270DEC2FBDF5E562
S111ECAFED02EC32A302ED32EC2B2607EC2F23
S111ECBDBDF5E5ED2BEC322713EC348400C4D6
S111ECCB081A8300002707EC32830001ED32A3
S111ECD9EC348400C4101A830000274BEC3482
S111ECE78400C4081A8300002710E6314F1A77
S111ECF5EE3A18AD00EC2DC30001ED2DEC3409
S111ED038400C4041A83000027037EED9420CC
S110ED1117CC00301AEE3A18AD00EC2DC3FB
S111ED1E0001ED2DEC32830001ED32EC322EBB
S111ED2CE57EED94EC348400C4041A830000E8
S111ED3A261D2017CC00201AEE3A18AD00EC6E
S111ED482DC30001ED2DEC32830001ED32EC01
S111ED56322EE5EC348400C4081A8300002732
S110ED642FE6314F1AEE3A18AD00EC2DC326
S111ED710001ED2D201DEC2FED06C30001ED79
S111ED7F2F1AEE0618E6004F1AEE3A18AD00F1
S111ED8DEC2DC30001ED2D1AEE2F186D00279A
S111ED9B0DEC2BED04830001ED2BEC0426CED1
S111EDA9EC348400C4041A83000027272017CA
S111EDB7CC00201AEE3A18AD00EC2DC300017A
S111EDC5ED2DEC32830001ED32EC322EE52010
S111EDD308CCEDFAED2F7EECA6EC3EC3000159
S111EDE1ED3E1AEE3E186D0027037EE81EEC90
S111EDEF2D8FC300388F35381838393C696EC3
S111EDFD7465676572206F6E6C7920707269A0
S111EE0B6E742C20757365202D6C66703F3F6D
S111EE1920746F2072656C696E6B3E00286E6B
S111EE27756C6C207074722070617373656476
S109EE35290000000000AA
S111EE3B3C183C38028F38393C364D2A0543CA
S111EE4953C30001183C3818308C00002A080E
S111EE578F43538F08186300028F186D002A32
S10CEE65054353C300013138399F
S111EE6E3C183C380238393C364D2A054353D3
S111EE7CC30001183C388C00002A058F435354
S111EE8A8F0802306D002A054353C300013186
S105EE98383903
S111EE9A3C183C37363C3C30CC0000ED00A662
S111EEA805E6073DED02A605E6063DE301ED95
S111EEB601A604E6073DE301ED016900A60490
S111EEC4E6063DE300ED0018383233383838E6
S104EED23902
S111EED31838181F00400237363C3018E6008D
S111EEE14FC43F37368F30A3008F35EF001833
S111EEEF1F0080043C3C3C3C186E0118303778
S111EEFD36188F183018EE0218EB0089001832
S111EF0B3018EE02188FC3000118ED003233E7
S106EF191835396B
S111EF1CBDEED356EC1C2608CCEFA8ED127EF9
S111EF2AEF8C6F11EC00C30011ED1220511A90
S111EF38EE1EEC1CBDEE6EED141A83000A2CC6
S110EF4616EC12C3FFFFED05ED12EC14C331
S111EF5300301AEE0518E7002021EC1E1A8388
S111EF6100102619EC12C3FFFFED03ED12ECB5
S111EF6F14C3EF97188F18E6001AEE0318E784
S111EF7D001AEE1EEC1CBDEE3BED1CEC1C2637
S111EF8BABEC123736EC18BDF51718388FC3EF
S111EF9900168F353818383961626364656676
S106EFA700300033
S111EFAABDEED3E4EC00C3002A188FBDF08343
S110EFB818CEF07FBDF0A9BDF4EF2608CC03
S111EFC5F07DED207EF0616F1FEC00C3001F95
S110EFD3ED207EF048EC00C3002A188FBD2D
S10EEFE0F083EC2EBDF11CBDF35ABD04
S110EFEBF15BED221A83000A2C16EC20C302
S111EFF8FFFFED04ED20EC22C300301AEE04FE
S111F00618E7002021EC2E1A8300102619ECC6
S111F01420C3FFFFED02ED20EC22C3F06C18C8
S110F0228F18E6001AEE0218E700EC00C398
S110F02F002A188FBDF083EC2EBDF11CBD2E
S111F03CF31BEC00C3002A188FBDF0C0EC00DB
S110F04AC3002A188FBDF08318CEF07FBDDF
S111F057F0A9BDF4EF27037EEFD8EC20373686
S111F065EC26BDF51718388FC300248F3538FC
S111F07318383961626364656600300000007D
S105F081000089
S111F08337368F8300088F18EC00ED0418EC6C
S111F09102ED06C6083A323339373618EC0061
S111F09FED0418EC02ED0632333937368F8358
S111F0AD00088F18EC00ED0018EC02ED02C60E
S111F0BB083A32333937368F8300088FEC045D
S111F0C918ED00EC0618ED02C6083A32333991
S111F0D737368F8300088FEC0018ED00EC0232
S110F0E518ED02C6083A32333937368F83EE
S111F0F200088FEC04ED00EC06ED02C6083AAF
S111F10032333937368F8300088F6F046F0562
S111F10E3233ED062C0463046305C6083A3957
S111F11C37368F8300088F6F006F013233ED9A
S111F12A022C0463006301C6083A3937368F9D
S111F1388300088F3233ED066F046F05C6089E
S111F1463A3937368F8300088F3233ED026F6B
S111F154006F01C6083A398F8300088FEC065D
S111F16237C6083A33393736183018EE02EC47
S111F1700018E300188F18EC00830004188FB9
S111F17EBDF0C032331838186E02183C183039
S111F18C18EE02183C183018EE02183C37C674
S111F19A051830183ABDF0C032183839183C48
S111F1A8183018EE02183C183018EE02183C0D
S111F1B637C6051830183ABDF0D7331838396B
S111F1C4183C3736C6061830183ABDF08318CA
S111F1D23018EC0418ED08323318383131319E
S110F1E03139183C3736C6061830183ABDD0
S111F1EDF0A9183018EC0418ED083233183865
S108F1FB31313131390E
S111F20037368F8300088FEC06E302ED06EC30
S111F20E04E901A900ED04C6083A3233393789
S111F21C368F8300088FEC06A302ED06EC0487
S111F22AE201A200ED04C6083A323339373649
S111F238183C8F8300088F3C3CEC061AEE0253
S111F246BDEE9A183C18301808180818ED028E
S111F254EC061AEE00BDEE9A3736EC041AEE04
S111F26202BDEE9A183018E300183818301860
S111F270E30018381830ED0418EC02ED06180F
S111F27E381838C6083A1838323339CC000034
S111F28C18ED0018ED02C62037680769066900
S111F29A0569041869031869021869011869E6
S111F2A80018EC001AA3002707251E18EC021C
S111F2B6200818EC021AA3022511A30218ED79
S111F2C40218EC00E201A20018ED006C073302
S111F2D25A26BF39EC04E801A8002A04C6013C
S111F2E02002C60037EC042A03BDF4B4EC008F
S110F2EE2A03BDF4C9BDF289335D2703BDB9
S111F2FBF4B4393736183C8F8300088F183C62
S111F309183C18308DC718381838C6083A1842
S111F317383233393736183C8F8300088F188C
S111F3253C183C1830BDF28918381838C60858
S111F3333A18383233393736183C8F830008C5
S111F3418F183C183C1830BDF2D6BDF09A1857
S111F34F381838C6083A1838323339373618A9
S110F35D3C8F8300088F183C183C1830BD0D
S111F36AF289BDF09A18381838C6083A1838D7
S111F37832333937368F8300088FE603C41F03
S111F3865D270B68076906690569045A20F2C1
S111F394C6083A3233398F8300088FC41F5DD8
S111F3A2270B68076906690569045A20F2C63C
S111F3B0083A3937368F8300088FE603C41FEE
S111F3BE5D270B67046605660666075A20F293
S111F3CCC6083A3233398F8300088FC41F5DA0
S111F3DA270B67046605660666075A20F2C60E
S111F3E8083A3937368F8300088FE603C41FB6
S111F3F65D270B64046605660666075A20F25E
S111F404C6083A3233398F8300088FC41F5D67
S111F412270B64046605660666075A20F2C6D8
S111F420083A3937368F8300088FEC04E40174
S111F42EA400ED04EC06E403A402ED06C608F7
S111F43C3A32333937368F8300088FEC04EAF6
S111F44A01AA00ED04EC06EA03AA02ED06C6D0
S111F458083A32333937368F8300088FEC04BC
S111F466E801A800ED04EC06E803A802ED0698
S111F474C6083A32333937368F8300088FCCFE
S111F4820000A306ED06CC0000E205A204ED96
S111F49004C6083A32333937368F8300088FAA
S111F49ECC0000A302ED02CC0000E201A200AB
S111F4ACED00C6083A3233393736CC0000A3DF
S111F4BA06ED06CC0000E205A204ED04323398
S111F4C8393736CC0000A302ED02CC0000E27E
S111F4D601A200ED003233398F8300088F63EA
S111F4E405630463076306C6083A3937368F9A
S111F4F28300088FEC06A302ED06EC04E20191
S111F500A20007260B5D260636EC0632270213
S10CF50E84FBC6083A06323339C5
S111F5173C30188FEE04183CE600270818E775
S110F5250008180820F418E70032333839C4
S110F532BDEED344FC2027ED02C30001FD13
S111F53F2027EC061AEE0218E7000808080858
S111F54D3538183839BDEED344EC06FD2027BE
S110F55BCC00023736EC00C3000A3736CC72
S111F5680000EC00C30004BDF59D18381838EF
S111F576ED023736EC0A3736CCF532BDE8121A
S111F5841838183818FE2027186F00FC2027AE
S10EF592A306080808083538183839AB
S111F59D37363C3C30EF00EC04C300021AA3E6
S111F5AB082607EC04C300062004EC0AE3085B
S10AF5B90808353818383941
S111F5C037363C3C30EF00EC04BDF74F1A83A5
S111F5CE0000270AEC04830061C30041200200
S10CF5DCEC04080835381838392C
S111F5E5BDEED346CC0000ED042007EC04C3B9
S111F5F30001ED04EC08ED02C30001ED081A5E
S111F601EE02186D0026E8EC048FC300068F9D
S108F60F3538183839FC
S111F614002020202020202020203030303004
S111F622302020202020202020202020202006
S111F630202020202090404040404040404098
S111F63E404040404040400C0C0C0C0C0C0CA6
S111F64C0C0C0C4040404040404009090909A4
S111F65A090901010101010101010101010180
S111F668010101010101010140404040404008
S111F6760A0A0A0A0A0A020202020202020236
S111F6840202020202020202020202024040DC
S110F69240402000000000000000000000C7
S111F69F000000000000000000000000000059
S111F6AD00000000000000000000000000004B
S111F6BB00000000000000000000000000003D
S111F6C900000000000000000000000000002F
S111F6D7000000000000000000000000000021
S111F6E5000000000000000000000000000013
S111F6F3000000000000000000000000000005
S111F7010000000000000000000000000000F6
S109F70F000000000000F0
S111F71537363C3C30EF00EC04C3F615188F79
S111F72318E6004F8400C41008083538183862
S104F731399A
S111F73237363C3C30EF00EC04C3F615188F5C
S111F74018E6004F8400C40408083538183851
S104F74E397D
S111F74F37363C3C30EF00EC04C3F615188F3F
S111F75D18E6004F8400C40208083538183836
S104F76B3960
S111F76CBDEED34A2007EC0CC30001ED0C1ACD
S111F77AEE0C18E6004FBDF7151A83000026AA
S111F788E9CC0000ED061AEE0C18E600C12DC7
S111F796260ECC0001ED06EC0CC30001ED0CB8
S111F7A420111AEE0C18E600C12B2607EC0CFF
S111F7B2C30001ED0CCC0000ED082026EC0C89
S111F7C0ED04C30001ED0CCC000A1AEE08BDE6
S111F7CEEE9A1AEE04373618E6004FED0232BA
S111F7DC33E302830030ED081AEE0C18E60049
S111F7EA4FBDF7321A83000026CAEC0627082A
S111F7F8EC08405082002002EC088FC3000A87
S109F8068F353818383973
S903E0001C
