S10EE0008E3FFFBDE3BE4FCE20018C1D
S111E00B201F2705A7000820F6CEF63D18CEEC
S111E01920008CF63E270AE60018E7000818DF
S10BE0270820F1BDE02F20FEEA
S110E02FBDED049818CEE446BDEEB418CE45
S10CE03C200CBDEEF17F20037FEE
S10DE04520017F2002BDE19718CEF0
S10DE04FE442BDEEB418CE2018BD63
S10FE059EEF1CC0000FD20127F20117FAE
S111E0652010BDE1A4BDE490CC00013736CC00
S111E0730002BDE5D21838CCE432BDE466CC20
S110E08100023736CC0003BDE5D21838CCC0
S10DE08EE425BDE46618CEE421BDCC
S111E098EEB4183C183C1830BDEEF1BDE37137
S111E0A618381838BDE4907EE18C18CE2004A2
S10EE0B4BDEEB418CEE41DBDEEDABDD5
S10DE0BFF16A18CEE446BDEEDABDA6
S110E0C9F32026037EE189CC00003736CC1D
S111E0D60000BDE5D21838CCE408BDE466CCE9
S111E0E403843736CC00643736CCE3F5373688
S110E0F2EC00C30003BDF383BDED2B06CC91
S111E0FF00013736CC0000BDE5D21838EC0025
S111E10DC30003BDE466BDE497F620104F374F
S110E11B36F620114F3736FC20123736CC73
S110E128E3E33736EC00C30003BDF383BD11
S111E135ED2B08CC00023736CC0000BDE5D23D
S111E1431838EC00C30003BDE46618CE2018A3
S111E151BDEEB4CC0001BDF23B183C183C18E6
S111E15F30BDEEF1CCE3D43736EC00C3000340
S110E16DBDF383BDED2B06CC00033736CC8B
S110E17A0000BDE5D21838EC00C30003BD61
S111E187E466BDE1A47EE0B08FC300188F35BE
S111E1953839CC0000BDE1C6BDE44ABDE20845
S10EE1A339F62002F72001BDE1B1F7BE
S111E1AE200239BDED0404F61000C403E7039B
S111E1BCE6034F08080808353839BDED04465F
S111E1CA1D09FCBDE1FAE705E605E109271889
S111E1D818CE1000181D0030E609585858588B
S111E1E6E702F61000EA02F710008FC30006ED
S111E1F48F3538183839F610004F040404042F
S110E2028400C4034F39BDED0482C640F70B
S111E20F10227F102018CEE446BDEEB418CEC7
S10DE21D2004BDEEF118CEE442BD6A
S111E227EEB418CE2014BDEEF10E0808353802
S104E23539AB
S104F63D00C8
S111E236BDED04866F05C640F71023FC100EE4
S111E244C34E20FD101818CE2004BDEEB418F1
S10EE252CEE3D0BDEEDABDF03118CEF3
S10EE25D2004BDEEF1F62000CB01F719
S110E2682000F62000C16425487F2000F648
S111E2752010CB01F72010F62010C13B230B24
S10FE2837F2010F62011CB01F72011F6CB
S110E28F2011C13B230C7F2011FC2012C381
S111E29C0001FD201218CE2014BDEEB418CEE1
S10DE2AAE3CCBDEEDABDF03118CE6E
S10DE2B42014BDEEF118CE2004BDC5
S10DE2BEEEB418CE200CBDEEDABD5C
S10FE2C8F3202E037EE34918CE2004BD91
S10DE2D4EEB418CEE3C8BDEEDABDC7
S10EE2DEF03118CE2008BDEEF118CE80
S10DE2E92008BDEEB418CEE3C4BD56
S10DE2F3EEDABDF03118CE200CBDA8
S10EE2FDEEF1F62003C801F72003F641
S111E30820034FED02270AEC021A83000127BE
S111E3160A2010CC0001BDE1C6200ECC00028E
S110E324BDE1C62006CC0000BDE1C618CE48
S10DE3312018BDEEB418CEE3CCBDF5
S10DE33BEEDABDF03118CE2018BD53
S110E345EEF12020BDE1FAC100271918CE29
S10DE3522004BDEEB418CE2008BD6F
S111E35CEEDABDF3202F06CC0000BDE1C68F23
S111E36AC300068F35383BBDED0486EC00C3BE
S111E378000A188FBDEEB418CEE3C8BDEEDA6D
S10EE386BDF12FBDEF1F18CE2004BD19
S110E391EEB4BDF031EC00C30002188FBDE6
S111E39EEEF1EC00C30002188FBDEEB418CEF1
S111E3AC2004BDEEDABDF3202EEA8FC3000676
S10DE3BA8F353839C605F7103F39D6
S111FFD6FFFFFFFFFFFFFFFFFFFFFFFFFFFF27
S111FFE4FFFFE236FFFFFFFFFFFFFFFFFFFFFF
S111FFF2FFFFFFFFFFFFFFFFFFFFFFFFE00029
S111E3C40000005A0000000A000000010000E2
S111E3D200016F646F6D657465723D25303710
S111E3E06C640065743D253032643A25303299
S111E3EE643A25303264006F6E3D2564206D64
S111E3FC73206F66663D2564206D73002D2D21
S111E40A2D2D2D204379636C696E67202D2D16
S111E4182D2D2D2D000000003200000BB856F3
S111E426657273696F6E20312E3030005448D9
S111E434322053687574746572204A6967005B
S10BE4420000000000000000CE
S111E44AC60CF7201CCC003CBDE621F6201CBD
S111E4584FBDE621CC0006BDE621BDE490399F
S111E466BDED04442013EC06ED02C30001EDED
S111E474061AEE0218E6004FBDE5BC1AEE06CD
S111E482186D0026E5080808083538183839E2
S111E490CC0001BDE62139BDED0406BDE5B5A5
S111E49EE7036D03250CE603C1132206C61323
S111E4ACE7042022E603C140250CE603C15319
S111E4BA2206C653E7042010E603C114250A07
S111E4C8E603C1272204C627E704E603C15475
S111E4D6250AE603C1672204C667E704E603CD
S111E4E4E705200CCC0020BDE5BCE605CB010D
S111E4F2E705E605E10423EEE6034FBDE59FD2
S111E5008FC300068F353839CC0002BDE621EA
S111E50E3937363C3C30EF00E605C403CA043E
S111E51C4FBDE62108083538183839BDED0426
S111E52A44E607C401E702F6201CC4FEEA0220
S111E5384FBDE584080808083538183839BD89
S111E546ED0444E607C40158E702F6201CC4A5
S111E554FDEA024FBDE58408080808353818B2
S111E5623839BDED0444E607C4015858E702F9
S111E570F6201CC4FBEA024FBDE5840808082F
S111E57E08353818383937363C3C30EF00E6A3
S111E58C05CA084FBDE621E605F7201C080865
S111E59A353818383937363C3C30EF00E6058A
S111E5A8CA804FBDE62108083538183839F608
S111E5B6B5F0C47F4F3937363C3C30EF00BD22
S111E5C4E637E605F7B5F1080835381838399A
S111E5D2BDED0446E60D4FED03271AEC031AC7
S111E5E08300012716EC031A8300022714ECB3
S111E5EE031A830003271220146F052010C6A1
S111E5FC40E705200AC614E7052004C654E7CC
S111E60A05E605EB09E705E6054FBDE59F8F24
S111E618C300068F353818383937363C3C308D
S111E626EF00BDE637E605F7B5F00808353815
S111E63418383918CEB5F0181F00800220F5F2
S104E642399A
S111E643BDED04F8CC0000ED2D7EEC141AEEB3
S111E6513E18E600C12527171AEE3E18E60013
S111E65F4F1AEE3A18AD00EC2DC30001ED2D5C
S111E66D7EEC0DCC0000ED32CC0000ED2BCC89
S111E67B0000ED34EC00C30010ED29C620E7CA
S111E68931EC3EC30001ED3ECC0000ED361A2C
S111E697EE3E18E6004FED081A830020274CD3
S111E6A5EC081A8300232722EC081A830020B5
S111E6B32D54EC081A83002B2726EC081A833A
S111E6C1002D2714EC081A8300302732203A6B
S111E6CFEC348A00CA01ED342035EC348A00A4
S111E6DDCA04ED34202BEC348A00CA08ED3454
S111E6EBC62BE731201DEC348A00CA08ED343A
S111E6F9C620E731200FEC348A00CA10ED343D
S111E7072005CC0001ED36EC362702200AEC8A
S111E7153EC30001ED3E7EE6961AEE3E18E687
S111E723004FBDF5631A8300002720EC3EBDB5
S111E731F59DED322007EC3EC30001ED3E1ACB
S111E73FEE3E18E6004FBDF5631A8300002677
S111E74DE91AEE3E18E600C12E2625EC3EC366
S111E75B0001ED3EBDF59DED2B2007EC3EC305
S111E7690001ED3E1AEE3E18E6004FBDF563CA
S111E7771A83000026E91AEE3E18E600C16C73
S111E785260FEC3EC30001ED3EEC348A00CAC0
S111E79302ED341AEE3E18E6004FED081A832C
S111E7A1006326037EEA9EEC081A83006426B9
S110E7AF037EE820EC081A83006626037E32
S111E7BCEC05EC081A8300662E0DEC081A8397
S110E7CA005826037EE8E12036EC081A838F
S111E7D7006F26037EE8E1EC081A83006F2D24
S111E7E523EC081A83007326037EEABFEC08B7
S110E7F31A83007526037EE8E1EC081A8302
S111E800007826037EE8E120001AEE3E18E6BA
S111E80E004F1AEE3A18AD00EC2DC30001EDD8
S111E81C2D7EEC0DEC348400C4021A8300003F
S110E82A26037EE8A5EC40C30004ED40C3C6
S111E837FFFC188FBDEEB4EC00C3000A188F6E
S111E845BDEEF1EC00C3000A188FBDEEB4184E
S111E853CEEC68BDEEDABDF3202C23EC348A43
S111E86100CA08ED34C62DE731EC00C3000AEE
S111E86F188FBDEEB4BDF2ABEC00C3000A1866
S111E87D8FBDEEF1CC000A3736EC00C3000A62
S111E88B188FBDEEB4183C183C1830BDEEF1E9
S111E899EC29BDEDDBBDED2B067EEA7CEC40E8
S111E8A7C30002ED40C3FFFE188F18EC00ED15
S111E8B50E2C14EC348A00CA08ED34C62DE78C
S111E8C331EC0E40508200ED0ECC000A3736C8
S111E8D1EC0E3736EC29BDED4D183818387EA4
S111E8DFEA7CEC348400C4021A830000271B78
S110E8EDEC40C30004ED40C3FFFC188FBDD8
S111E8FAEEB4EC00C3000A188FBDEEF120113D
S111E908EC40C30002ED40C3FFFE188F18EC74
S111E91600ED0E1AEE3E18E600C1752645EC23
S111E924348400C4021A8300002724CC000AA5
S111E9323736EC00C3000A188FBDEEB4183C53
S110E940183C1830BDEEF1EC29BDEDDBBD37
S111E94DED2B067EEA7CCC000A3736EC0E3742
S111E95B36EC29BDED4D183818387EEA7C1ACA
S111E969EE3E18E600C16F27037EE9D7EC34BA
S111E9778400C4011A8300002711EC29ED0668
S111E985C30001ED291AEE06C63018E700ECB7
S111E993348400C4021A8300002724CC000838
S111E9A13736EC00C3000A188FBDEEB4183CE4
S110E9AF183C1830BDEEF1EC29BDEDDBBDC8
S111E9BCED2B067EEA7CCC00083736EC0E37D5
S111E9CA36EC29BDED4D183818387EEA7CEC89
S111E9D8348400C4011A8300002726EC29EDC4
S111E9E606C30001ED291AEE06C63018E7003C
S111E9F4EC29ED04C30001ED291AEE3E18E6ED
S111EA02001AEE0418E700EC348400C4021A73
S110EA108300002723CC00103736EC00C330
S111EA1D000A188FBDEEB4183C183C1830BD2A
S111EA2BEEF1EC29BDEDDBBDED2B062012CC87
S111EA3900103736EC0E3736EC29BDED4D18C3
S111EA473818381AEE3E18E600C1582628EC9E
S111EA5500C30010ED2F20171AEE2F18E60054
S110EA634FBDF3F11AEE2F18E700EC2FC39E
S111EA700001ED2F1AEE2F186D0026E1EC00C8
S111EA7EC30010ED2FEC2B2750EC00C300104A
S111EA8CBDF416ED0EEC2B1AA30E2C3FEC0E6F
S111EA9AED2B2039EC40C30002ED40C3FFFE1B
S111EAA8188F18EC00ED0E1AEE3A18AD00ECC3
S111EAB62DC30001ED2D7EEC0DEC40C30002DB
S111EAC4ED40C3FFFE188F18EC00ED2F260561
S111EAD2CCEC56ED2FEC32270DEC2FBDF416D4
S111EAE0ED02EC32A302ED32EC2B2607EC2FF4
S111EAEEBDF416ED2BEC322713EC348400C477
S111EAFC081A8300002707EC32830001ED3274
S111EB0AEC348400C4101A830000274BEC3452
S111EB188400C4081A8300002710E6314F1A47
S111EB26EE3A18AD00EC2DC30001ED2DEC34D9
S111EB348400C4041A83000027037EEBC5206E
S110EB4217CC00301AEE3A18AD00EC2DC3CC
S111EB4F0001ED2DEC32830001ED32EC322E8C
S111EB5DE57EEBC5EC348400C4041A8300008A
S111EB6B261D2017CC00201AEE3A18AD00EC3F
S111EB792DC30001ED2DEC32830001ED32ECD2
S111EB87322EE5EC348400C4081A8300002703
S110EB952FE6314F1AEE3A18AD00EC2DC3F7
S111EBA20001ED2D201DEC2FED06C30001ED4A
S111EBB02F1AEE0618E6004F1AEE3A18AD00C2
S111EBBEEC2DC30001ED2D1AEE2F186D00276B
S111EBCC0DEC2BED04830001ED2BEC0426CEA2
S111EBDAEC348400C4041A830000272720179B
S111EBE8CC00201AEE3A18AD00EC2DC300014B
S111EBF6ED2DEC32830001ED32EC322EE520E1
S111EC0408CCEC2BED2F7EEAD7EC3EC30001CA
S111EC12ED3E1AEE3E186D0027037EE64FEC31
S111EC202D8FC300388F35381838393C696E93
S111EC2E7465676572206F6E6C792070726970
S111EC3C6E742C20757365202D6C66703F3F3E
S111EC4A20746F2072656C696E6B3E00286E3C
S111EC58756C6C207074722070617373656447
S109EC662900000000007B
S111EC6C3C183C38028F38393C364D2A05439B
S111EC7A53C30001183C3818308C00002A08DF
S111EC888F43538F08186300028F186D002A03
S10CEC96054353C3000131383970
S111EC9F3C183C380238393C364D2A054353A4
S111ECADC30001183C388C00002A058F435325
S111ECBB8F0802306D002A054353C300013157
S105ECC93839D4
S111ECCB3C183C37363C3C30CC0000ED00A633
S111ECD905E6073DED02A605E6063DE301ED66
S111ECE701A604E6073DE301ED016900A60461
S111ECF5E6063DE300ED0018383233383838B7
S104ED0339D2
S111ED041838181F00400237363C3018E6005D
S111ED124FC43F37368F30A3008F35EF001803
S111ED201F0080043C3C3C3C186E0118303748
S111ED2E36188F183018EE0218EB0089001802
S111ED3C3018EE02188FC3000118ED003233B8
S106ED4A1835393C
S111ED4DBDED0456EC1C2608CCEDD9ED127E6B
S111ED5BEDBD6F11EC00C30011ED1220511A32
S111ED69EE1EEC1CBDEC9FED141A83000A2C68
S110ED7716EC12C3FFFFED05ED12EC14C302
S111ED8400301AEE0518E7002021EC1E1A8359
S111ED9200102619EC12C3FFFFED03ED12EC86
S111EDA014C3EDC8188F18E6001AEE0318E726
S111EDAE001AEE1EEC1CBDEC6CED1CEC1C26D9
S111EDBCABEC123736EC18BDF34818388FC391
S111EDCA00168F353818383961626364656647
S106EDD800300004
S111EDDBBDED04E4EC00C3002A188FBDEEB4B5
S110EDE918CEEEB0BDEEDABDF3202608CC46
S111EDF6EEAEED207EEE926F1FEC00C3001F08
S110EE04ED207EEE79EC00C3002A188FBDCE
S10EEE11EEB4EC2EBDEF4DBDF18BBD47
S110EE1CEF8CED221A83000A2C16EC20C3A3
S111EE29FFFFED04ED20EC22C300301AEE04CE
S111EE3718E7002021EC2E1A8300102619EC97
S111EE4520C3FFFFED02ED20EC22C3EE9D186A
S110EE538F18E6001AEE0218E700EC00C369
S110EE60002A188FBDEEB4EC2EBDEF4DBDA1
S111EE6DF14CEC00C3002A188FBDEEF1EC004E
S110EE7BC3002A188FBDEEB418CEEEB0BD52
S111EE88EEDABDF32027037EEE09EC203736C8
S111EE96EC26BDF34818388FC300248F35389E
S111EEA418383961626364656600300000004E
S105EEB200005A
S111EEB437368F8300088F18EC00ED0418EC3D
S111EEC202ED06C6083A323339373618EC0032
S111EED0ED0418EC02ED0632333937368F8329
S111EEDE00088F18EC00ED0018EC02ED02C6DF
S111EEEC083A32333937368F8300088FEC042E
S111EEFA18ED00EC0618ED02C6083A32333962
S111EF0837368F8300088FEC0018ED00EC0202
S110EF1618ED02C6083A32333937368F83BE
S111EF2300088FEC04ED00EC06ED02C6083A7F
S111EF3132333937368F8300088F6F046F0533
S111EF3F3233ED062C0463046305C6083A3928
S111EF4D37368F8300088F6F006F013233ED6B
S111EF5B022C0463006301C6083A3937368F6E
S111EF698300088F3233ED066F046F05C6086F
S111EF773A3937368F8300088F3233ED026F3C
S111EF85006F01C6083A398F8300088FEC062E
S111EF9337C6083A33393736183018EE02EC18
S111EFA10018E300188F18EC00830004188F8A
S111EFAFBDEEF132331838186E02183C1830DB
S111EFBD18EE02183C183018EE02183C37C645
S111EFCB051830183ABDEEF132183839183CEA
S111EFD9183018EE02183C183018EE02183CDE
S111EFE737C6051830183ABDEF08331838390C
S111EFF5183C3736C6061830183ABDEEB4186C
S111F0033018EC0418ED08323318383131316E
S110F0113139183C3736C6061830183ABDA0
S111F01EEEDA183018EC0418ED083233183806
S108F02C3131313139DE
S111F03137368F8300088FEC06E302ED06EC01
S111F03F04E901A900ED04C6083A323339375A
S111F04D368F8300088FEC06A302ED06EC0458
S111F05BE201A200ED04C6083A32333937361A
S111F069183C8F8300088F3C3CEC061AEE0224
S111F077BDECCB183C18301808180818ED0230
S111F085EC061AEE00BDECCB3736EC041AEEA6
S111F09302BDECCB183018E300183818301802
S111F0A1E30018381830ED0418EC02ED0618E0
S111F0AF381838C6083A1838323339CC000005
S111F0BD18ED0018ED02C620376807690669D1
S111F0CB0569041869031869021869011869B7
S111F0D90018EC001AA3002707251E18EC02ED
S111F0E7200818EC021AA3022511A30218ED4A
S111F0F50218EC00E201A20018ED006C0733D3
S111F1035A26BF39EC04E801A8002A04C6010C
S111F1112002C60037EC042A03BDF2E5EC0030
S110F11F2A03BDF2FABDF0BA335D2703BD2B
S111F12CF2E5393736183C8F8300088F183C03
S111F13A183C18308DC718381838C6083A1813
S111F148383233393736183C8F8300088F185D
S111F1563C183C1830BDF0BA18381838C608FA
S111F1643A18383233393736183C8F83000896
S111F1728F183C183C1830BDF107BDEECB18C9
S111F180381838C6083A18383233393736187A
S110F18E3C8F8300088F183C183C1830BDDE
S111F19BF0BABDEECB18381838C6083A18384A
S111F1A932333937368F8300088FE603C41FD4
S111F1B75D270B68076906690569045A20F292
S111F1C5C6083A3233398F8300088FC41F5DA9
S111F1D3270B68076906690569045A20F2C60D
S111F1E1083A3937368F8300088FE603C41FBF
S111F1EF5D270B67046605660666075A20F264
S111F1FDC6083A3233398F8300088FC41F5D71
S111F20B270B67046605660666075A20F2C6DE
S111F219083A3937368F8300088FE603C41F86
S111F2275D270B64046605660666075A20F22E
S111F235C6083A3233398F8300088FC41F5D38
S111F243270B64046605660666075A20F2C6A9
S111F251083A3937368F8300088FEC04E40145
S111F25FA400ED04EC06E403A402ED06C608C8
S111F26D3A32333937368F8300088FEC04EAC7
S111F27B01AA00ED04EC06EA03AA02ED06C6A1
S111F289083A32333937368F8300088FEC048D
S111F297E801A800ED04EC06E803A802ED0669
S111F2A5C6083A32333937368F8300088FCCCF
S111F2B30000A306ED06CC0000E205A204ED67
S111F2C104C6083A32333937368F8300088F7B
S111F2CFCC0000A302ED02CC0000E201A2007C
S111F2DDED00C6083A3233393736CC0000A3B0
S111F2EB06ED06CC0000E205A204ED04323369
S111F2F9393736CC0000A302ED02CC0000E24F
S111F30701A200ED003233398F8300088F63BA
S111F31505630463076306C6083A3937368F6A
S111F3238300088FEC06A302ED06EC04E20161
S111F331A20007260B5D260636EC06322702E4
S10CF33F84FBC6083A0632333996
S111F3483C30188FEE04183CE600270818E746
S110F3560008180820F418E7003233383995
S110F363BDED0444FC201DED02C30001FDBE
S111F370201DEC061AEE0218E7000808080833
S111F37E3538183839BDED0444EC06FD201D69
S110F38CCC00023736EC00C3000A3736CC43
S111F3990000EC00C30004BDF3CE1838183891
S111F3A7ED023736EC0A3736CCF363BDE6438D
S111F3B51838183818FE201D186F00FC201D93
S10EF3C3A3060808080835381838397C
S111F3CE37363C3C30EF00EC04C300021AA3B7
S111F3DC082607EC04C300062004EC0AE3082C
S10AF3EA0808353818383912
S111F3F137363C3C30EF00EC04BDF5801A8347
S111F3FF0000270AEC04830061C300412002D1
S10CF40DEC0408083538183839FC
S111F416BDED0446CC0000ED042007EC04C359
S111F4240001ED04EC08ED02C30001ED081A2E
S111F432EE02186D0026E8EC048FC300068F6E
S108F4403538183839CD
S111F4450020202020202020202030303030D5
S111F4533020202020202020202020202020D7
S111F461202020202090404040404040404069
S111F46F404040404040400C0C0C0C0C0C0C77
S111F47D0C0C0C404040404040400909090975
S111F48B090901010101010101010101010151
S111F4990101010101010101404040404040D9
S111F4A70A0A0A0A0A0A020202020202020207
S111F4B50202020202020202020202024040AD
S110F4C34040200000000000000000000098
S111F4D000000000000000000000000000002A
S111F4DE00000000000000000000000000001C
S111F4EC00000000000000000000000000000E
S111F4FA000000000000000000000000000000
S111F5080000000000000000000000000000F1
S111F5160000000000000000000000000000E3
S111F5240000000000000000000000000000D5
S111F5320000000000000000000000000000C7
S109F540000000000000C1
S111F54637363C3C30EF00EC04C3F446188F1B
S111F55418E6004F8400C41008083538183833
S104F562396B
S111F56337363C3C30EF00EC04C3F446188FFE
S111F57118E6004F8400C40408083538183822
S104F57F394E
S111F58037363C3C30EF00EC04C3F446188FE1
S111F58E18E6004F8400C40208083538183807
S104F59C3931
S111F59DBDED044A2007EC0CC30001ED0C1A6E
S111F5ABEE0C18E6004FBDF5461A830000264C
S111F5B9E9CC0000ED061AEE0C18E600C12D98
S111F5C7260ECC0001ED06EC0CC30001ED0C89
S111F5D520111AEE0C18E600C12B2607EC0CD0
S111F5E3C30001ED0CCC0000ED082026EC0C5A
S111F5F1ED04C30001ED0CCC000A1AEE08BDB7
S111F5FFECCB1AEE04373618E6004FED02325C
S111F60D33E302830030ED081AEE0C18E60019
S111F61B4FBDF5631A83000026CAEC062708CB
S111F629EC08405082002002EC088FC3000A57
S109F6378F353818383944
S903E0001C
